:020000040800F2
:10000000F83E0020290200087D1F0008D51C0008CA
:10001000FD1E00083B0400085F27000800000000E8
:100020000000000000000000000000004D22000859
:100030005B05000800000000811F00084F22000837
:10004000430200084302000843020008430200087C
:10005000430200084302000843020008430200086C
:10006000430200084302000843020008430200085C
:10007000430200084302000843020008430200084C
:10008000430200084302000843020008430200083C
:10009000430200084302000843020008430200082C
:1000A000430200084302000843020008430200081C
:1000B000430200084302000843020008430200080C
:1000C00043020008430200084302000843020008FC
:1000D00043020008430200084302000843020008EC
:1000E00043020008430200084302000843020008DC
:1000F00043020008430200084302000843020008CC
:1001000043020008430200084302000843020008BB
:1001100043020008430200084302000843020008AB
:10012000430200084104000843020008430200089B
:100130004302000800000000000000004302000825
:10014000430200084302000843020008430200087B
:10015000430200084302000843020008430200086B
:10016000430200084302000843020008430200085B
:1001700043020008430200080000000000000000E5
:10018000430200084302000800F002F800F03CF8C7
:100190000AA090E8000C82448344AAF10107DA45E2
:1001A00001D100F031F8AFF2090EBAE80F0013F0F8
:1001B000010F18BFFB1A43F0010318475C3500001C
:1001C0007C350000103A24BF78C878C1FAD85207AD
:1001D00024BF30C830C144BF04680C6070470000C1
:1001E0000023002400250026103A28BF78C1FBD840
:1001F000520728BF30C148BF0B6070471FB503F0DE
:100200006CFA1FBD10B510BD00F0E2F81146FFF703
:10021000F5FF02F0D3FC00F000F903B4FFF7F2FFA2
:1002200003BC00F003F90000094880470948004773
:10023000FEE7FEE7FEE7FEE7FEE7FEE7FEE7FEE796
:10024000FEE7FEE704480549054A064B70470000F3
:100250000D23000889010008F8380020F83E00202E
:10026000F83A0020F83A002053EA020C00F06980C6
:100270002DE9F04B4FF00006002B1FBFB3FA83F5BA
:1002800003FA05F424FA05F65E4012BF1643B2FAEB
:1002900082F502FA05F4C5F120051EBF22FA05FC1D
:1002A00044EA0C04203556EA044C4FEA144418BFC3
:1002B000641C4FF000084FF00009904271EB030CF2
:1002C00039D3002919BFB1FA81F701FA07F6B0FA5C
:1002D00080F700FA07F6C7F120071EBF20FA07FCD7
:1002E00046EA0C062037B6FBF4FCA7EB0507103FE7
:1002F00007F01F0BCBF120060CFA0BFB2CFA06F6CD
:1003000044BFB3460026202FA4BF5E464FF0000B2B
:100310005BEA060C08BF4FF0010B19EB0B09ABFBB6
:10032000027C48EB0608C01B06FB02CC0BFB03CC8F
:1003300071EB0C01C1E70B46024641464846BDE859
:10034000F08B13B54FF000004FF00001AFF30080C9
:10035000BDE81C4070474FF0000200B513469446BC
:100360009646203922BFA0E80C50A0E80C50B1F10D
:100370002001BFF4F7AF090728BFA0E80C5048BF21
:100380000CC05DF804EB890028BF40F8042B08BFBF
:10039000704748BF20F8022B11F0804F18BF00F8BB
:1003A000012B704770477047704710B500F008F890
:1003B000006810BD10B5044600F002F8046010BDDE
:1003C000004870479838002000487047983800204F
:1003D0007546FFF7F9FFAE4605006946534620F023
:1003E0000700854618B020B5FFF72CFFBDE8204078
:1003F0004FF000064FF000074FF000084FF0000BE1
:1004000021F00701AC46ACE8C009ACE8C009ACE893
:10041000C009ACE8C0098D46704710B50446AFF37B
:1004200000802046BDE81040FFF7F7BE01491820C4
:10043000ABBEFEE726000200704700BFFEE70000EB
:1004400010B5024800F0A2F810BD0000C80000205E
:100450000146087810381823B0FBF3F20848805C96
:10046000C865032A05D908686FF30900001D88656F
:1004700003E008686FF309008865886D7047000025
:10048000EE360008014600208A6A8B69CBB932B18A
:10049000012A0DD0022A03D0032A10D10EE000BF9A
:1004A000CB6A03F08073B3F1807F00D1012007E0B5
:1004B000CB6AB3F1C07F00D1012001E000E000BFB2
:1004C00034E08B69B3F5005F1AD132B1012A07D04D
:1004D000022A03D0032A11D10AE000BF01200EE056
:1004E000CB6A03F08073B3F1807F00D1012006E076
:1004F000CB6AB3F1C07F00D1012000E000BF15E05E
:1005000032B1012A05D0022A04D0032A0CD103E01B
:1005100000BF00BF012008E0CB6A03F08073B3F195
:10052000807F00D1012000E000BF00BF704730B5E0
:100530000468246824F4802405682C6004686360DF
:100540008468402C04D10468A2600468E16003E080
:100550000468A1600468E26030BD704772B600BFF5
:10056000FEE7014691F83500022803D08020486557
:1005700001207047052081F835000868006820F0E8
:1005800001000A6810600020F3E70000F8B5044697
:10059000002000908C4800684FF41651B0FBF1F732
:1005A000A56D2E6894F85C1008208840304098B102
:1005B0002068006800F0040070B12068006820F036
:1005C00004002168086094F85C1008208840A86046
:1005D000606D40F00100606594F85C100120884077
:1005E000304068B12068406900F0800040B194F864
:1005F0005C1001208840A860606D40F002006065DA
:1006000094F85C1004208840304068B1206800688D
:1006100000F0020040B194F85C1004208840A8600B
:10062000606D40F00400606594F85C101020884014
:10063000304078B32068006800F0080050B394F8A8
:100640005C1010208840A8602068006800F48020BA
:1006500080B12068006800F4002028B9206CC8B17F
:100660002046216C884715E0A06C98B12046A16C0B
:1006700088470FE02068006800F4807028B920687F
:10068000006820F0080021680860206C10B1204646
:10069000216C884794F85C10202088403040002866
:1006A00065D02068006800F0100000285FD094F842
:1006B0005C1020208840A86094F83500052828D1D7
:1006C0002068006820F016002168086020684069F2
:1006D00020F0800021684861206C08B9A06C28B126
:1006E0002068006820F008002168086094F85C1019
:1006F0003F208840A860012084F8350000BF00201A
:1007000084F8340000BF206D10B12046216D884769
:10071000F8BD2068006800F4802080B1206800687F
:1007200000F4002028B9606C10B12046616C884745
:100730001DE0E06BD8B12046E16B884717E02068E8
:10074000006800F4807068B92068006820F010002C
:1007500021680860012084F8350000BF002084F87B
:10076000340000BFE06B10B12046E16B8847606D3C
:1007700038B3606D00F00100F0B1052084F8350059
:100780002068006820F001002168086000BF009820
:10079000401C0090B84200D905E02068006800F0D5
:1007A00001000028F3D100BF012084F8350000BF0C
:1007B000002084F8340000BFE06C10B12046E16CEA
:1007C000884700BFA4E700000C0000202DE9F0419D
:1007D0000446002500F0CEF9074614B90120BDE813
:1007E000F081606A00B100BF022084F8350000BFCC
:1007F000002084F8340000BF2068006820F0010069
:10080000216808600AE000F0B5F9C01B052805D989
:1008100020206065032084F83500E0E72068006848
:1008200000F001000028EED120680568214805404D
:10083000D4E901010843E16808432169084361697B
:100840000843A1690843E1690843216A0843054355
:10085000606A042803D1D4E90B01084305432068EA
:1008600005602068456925F00705606A0543606AF0
:1008700004280DD1A06A0543E06A48B12046FFF77D
:1008800001FE28B140206065012084F83500A6E70C
:10089000206845612046FFF7DBFD064694F85C10B2
:1008A0003F208840B06000206065012084F835005A
:1008B000002094E73F8010F02DE9F04704460D46F4
:1008C00016461F464FF00008D4F8589000BF94F821
:1008D0003400012802D10220BDE8F087012084F80D
:1008E000340000BF94F83500012825D1022084F897
:1008F0003500002060653B46324629462046FFF71A
:1009000016FE94F85C103F208840C9F80800206863
:10091000006840F0160021680860206C28B120684B
:10092000006840F00800216808602068006840F016
:1009300001002168086006E000BF002084F8340050
:1009400000BF4FF002084046C6E7000070B50446FD
:1009500000F010F906462546681C10B104480078DE
:10096000054400BF00F006F9801BA842FAD370BD11
:1009700008000020F8B502460B46002500240020A0
:100980000021D6E0012606FA01F51E6806EA0504F4
:10099000AC4274D11E7906F00306012E04D01E79F4
:1009A00006F00306022E13D190684F000326BE40C6
:1009B000B0434F00DE68BE4030439060506801266F
:1009C0008E40B0431E79C6F300168E40304350600F
:1009D0001E7906F00306032E09D0D0684F000326C7
:1009E000BE40B0434F009E68BE403043D0601E7989
:1009F00006F00306022E13D1CF0802F1200656F8A6
:100A000027004E07F70E0F26BE40B0434F07FF0EDC
:100A10001E69BE403043CF0802F1200646F8270089
:100A200010684F000326BE40B0431E7906F003064F
:100A30004F00BE40304310605E6806F44036002E22
:100A400076D000BF002600963C4E366846F48046BD
:100A50003A4F3E603E46366806F48046009600BF38
:100A600000BF374E8F0856F827008E07370F0F2626
:100A7000BE40B043334EB24202D1002624E057E0DC
:100A8000314EB24201D101261EE0304EB24201D1B8
:100A9000022619E02E4EB24201D1032614E02D4E5B
:100AA000B24201D104260FE02B4EB24201D10526FD
:100AB0000AE02A4EB24201D1062605E0284EB24293
:100AC00001D1072600E008268F073F0FBE403043C4
:100AD0001B4E8F0846F82700224E3068A0435E6800
:100AE00006F4801606B120431E4E3060361D306875
:100AF000A0435E6806F4001606B12043194E361D69
:100B00003060184E361F3068A0435E6806F4003629
:100B100006B12043134E361F3060361F3068A043A5
:100B20005E6806F4803606B120430E4E083E306003
:100B3000491C1029FFF426AFF8BD000044380240DC
:100B40000838014000000240000402400008024052
:100B5000000C024000100240001402400018024045
:100B6000001C0240083C01400AB1816101E00B0415
:100B70008361704701480068704700000000002052
:100B80000348006803490978084401490860704730
:100B9000000000200800002010B50D48006840F457
:100BA00000700B4908600846006840F480600860E7
:100BB0000846006840F480700860032000F0A6F842
:100BC0000F2000F007F800F02BF8002010BD000007
:100BD000003C024070B504460E4800784FF47A712C
:100BE000B1FBF0F00C490968B1FBF0F5284600F0C4
:100BF00009FC08B1012070BD102C07D2002221464B
:100C0000501E00F045F80548046001E00120F2E7BD
:100C10000020F0E7080000200C0000200400002065
:100C200008B500BF002000900E48006840F48040E6
:100C30000C4908600846006800F48040009000BF3E
:100C400000BF00BF00200090081F006840F08050E7
:100C5000091F08600846006800F08050009000BF3F
:100C600000BF08BD443802400146084600280DDB9D
:100C700000BF00BF00F01F0301229A4043099B0000
:100C800003F1E023C3F8002100BF00BF00BF70479D
:100C90002DE9F05F80460D461646002701F062FD03
:100CA000074639462A46334601F00700C0F1070AD5
:100CB000BAF1040F02D94FF0040A01E0C0F1070AAB
:100CC000D14600F1040ABAF1070F02D24FF0000A30
:100CD00001E0A0F1030AD4464FF0010A0AFA09FA2A
:100CE000AAF1010A0AEA020A0AFA0CFA4FF0010B09
:100CF0000BFA0CFBABF1010B0BEA030B4AEA0B04FA
:100D00002146404601F036FDBDE8F09F00BF00F0EF
:100D10000702064B19684FF6FF031940044B0B43BB
:100D200043EA0221014B196000BF70470CED00E05F
:100D30000000FA0570B504460D460CB9012070BDDF
:100D40005848006800F00700A84209D255490D70C4
:100D50000846006800F00700A84201D00120EEE735
:100D6000207800F0020002281DD1207800F0040055
:100D7000042805D14C48006840F4E0504A49086016
:100D8000207800F00800082805D14748006840F4A2
:100D90006040454908604448006820F0F000A168C0
:100DA000084341490860207800F00100A8B360685A
:100DB000012807D13C4808380068C0F34040B8B962
:100DC0000120BCE76068022802D06068032807D1D0
:100DD000354808380068C0F3406048B90120AEE7E4
:100DE000314808380068C0F3400008B90120A6E780
:100DF0002D48006820F00300616808432A49086014
:100E0000FFF7B8FE064609E0FFF7B4FE801B41F28B
:100E10008831884202D9032091E707E02248006820
:100E200000F00C006168B0EB810FEDD11D48006847
:100E300000F00700A84209D91A490D700846006859
:100E400000F00700A84201D0012078E7207800F0E8
:100E50000400042807D11448006820F4E050E16839
:100E6000084311490860207800F00800082808D1DC
:100E70000D48006820F46040216940EAC1000A4939
:100E8000086000F019F808490968C1F30311074A1E
:100E9000515CC8400649086006480068FFF79AFEA2
:100EA00000204CE7003C024008380240F6360008BB
:100EB0000C000020040000202DE9F047002400254C
:100EC0000026A1462548006800F00C0020B1042847
:100ED00005D008283AD105E0DFF8849039E0DFF842
:100EE000849036E01D48001F006800F03F041B4856
:100EF000001F006800F4800078B11A481749091FE4
:100F00000968C1F38811A0FB017001462246002345
:100F10003846FFF7A9F905460EE011480F49091FA9
:100F20000968C1F38811A0FB017001462246002325
:100F30003846FFF799F905460848001F0068C0F3D6
:100F40000140401C4600B5FBF6F902E0DFF81090C6
:100F500000BF00BF4846BDE8F087000008380240E7
:100F60000024F40000127A00F8B504460CB9012000
:100F7000F8BD207800F00100002874D0F94800681E
:100F800000F00C0004280DD0F648006800F00C00BA
:100F9000082813D1F348001F006800F48000B0F562
:100FA000800F0BD1EF4808380068C0F3404000289C
:100FB00059D06068002856D10120D9E700BF606889
:100FC000B0F5803F08D1E7480838006840F4803029
:100FD000E449083908601EE06068B0F5A02F0DD123
:100FE000E0480838006840F48020DE49083908608D
:100FF0000846006840F4803008600CE0D9480838A2
:10100000006820F48030D749083908600846006835
:1010100020F48020086000BF606890B1FFF7AAFD4F
:10102000054606E0FFF7A6FD401B642801D9032012
:101030009EE7CC4808380068C0F340400028F1D053
:1010400011E0FFF797FD054606E0FFF793FD401B13
:10105000642801D903208BE7C24808380068C0F330
:1010600040400028F1D1207800F0020002285FD132
:10107000BC48006800F00C0058B1BA48006800F0A5
:101080000C0008281CD1B748001F006800F480003D
:10109000B0B9B44808380068C0F3400020B1E06837
:1010A000012801D0012063E7AE480838006820F02D
:1010B000F800216940EAC100AA490839086037E010
:1010C000E06800B30120A8490860FFF753FD05461A
:1010D00006E0FFF74FFD401B022801D9032047E738
:1010E000A04808380068C0F340000028F1D09D48AF
:1010F0000838006820F0F800216940EAC1009949E9
:101100000839086014E0002097490860FFF732FDB5
:10111000054606E0FFF72EFD401B022801D90320FB
:1011200026E7904808380068C0F340000028F1D155
:10113000207800F0080008282CD16069A8B10120AF
:101140008A490860FFF716FD054606E0FFF712FD25
:10115000401B022801D903200AE782486C3000684E
:10116000C0F340000028F1D014E000207F4908605F
:10117000FFF700FD054606E0FFF7FCFC401B0228D8
:1011800001D90320F4E677486C300068C0F34000D2
:101190000028F1D1207800F00400042870D1002745
:1011A00070483830006800F0805090B900BF0020CF
:1011B00000906C483830006840F080506949383100
:1011C00008600846006800F08050009000BF00BF33
:1011D00001276748006800F48070B0B9644800686F
:1011E00040F4807062490860FFF7C4FC054606E0E1
:1011F000FFF7C0FC401B022801D90320B8E65C4879
:10120000006800F480700028F2D000BFA0680128B8
:1012100008D154486830006840F0010051496831F5
:1012200008601DE0A06805280DD14E4868300068B0
:1012300040F004004B49683108600846006840F0FF
:10124000010008600CE047486830006820F00100A9
:101250004449683108600846006820F004000860CE
:1012600000BFA068A8B1FFF785FC054609E0FFF7BD
:1012700081FC401B41F28831884202D9032077E685
:1012800026E0384868300068C0F340000028EED0FF
:1012900013E0FFF76FFC054608E0FFF76BFC401B0F
:1012A00041F28831884201D9032061E62D48683037
:1012B0000068C0F340000028EFD1012F07D1294872
:1012C0003830006820F0805026493831086000BF6F
:1012D000A069002845D02348006800F00C000828C9
:1012E0005DD0A069022845D100201F490866FFF79C
:1012F00041FC054606E0FFF73DFC401B022801D9F2
:10130000032035E6174808380068C0F3406000281D
:10131000F1D1D4E907010843616A40EA8111012251
:10132000A06AC2EB500041EA00412C20005D41EA76
:1013300000600C49091F086001200B490866FFF78F
:1013400019FC054606E0FFF715FC401B022801D9F1
:1013500003200DE6034808380068C0F34060002809
:10136000F1D049E00838024000004742800E474271
:1013700000700040002021490866FFF7FBFB05468E
:1013800006E0FFF7F7FB401B022801D90320EFE539
:101390001B480068C0F340600028F2D12CE0A0692F
:1013A000012800D1E4E51648001D0668A06901285F
:1013B00020D006F48001E06981421BD106F03F0194
:1013C000206A814216D147F6C0703040616AB0EBA6
:1013D000811F0FD106F440310122A06AC2EB5000F8
:1013E000B1EB004F06D106F070612C20005DB1EB2F
:1013F000006F01D00120BBE50020B9E500004742A5
:101400000038024070B504462546681EB0F1807F62
:1014100001D301200FE0681E4FF0E02148610F2149
:101420004FF0FF3001F0A6F900204FF0E021886175
:1014300007200861002070BD10B50346002200BFE0
:1014400093F83C00012801D1022010BD012083F84F
:101450003C0000BF22F0FF00CC6840EA040222F406
:1014600040708C6840EA040222F480604C6840EAD4
:10147000040222F400600C6840EA040222F4805066
:101480000C6940EA040222F400504C6940EA04026C
:1014900022F48040CC6940EA04021868426400BF2C
:1014A000002083F83C0000BF00BFCEE730B5024605
:1014B0000B4600BF92F83C00012801D1022030BD4C
:1014C000012082F83C0000BF022082F83D00106835
:1014D00044681068816824F0700418680443106838
:1014E0004460184D1068A8421BD01068B0F1804FBE
:1014F00017D0154D1068A84213D0144D1068A8429B
:101500000FD0134D1068A8420BD0124D1068A8429E
:1015100007D0114D1068A84203D0104D1068A842A2
:1015200005D121F0800158680143106881600120D5
:1015300082F83D0000BF002082F83C0000BF00BFE1
:10154000BDE700000000014000040040000800402A
:10155000000C004000040140004001400018004021
:1015600010B504460CB9012010BD94F83D0028B90F
:10157000002084F83C00204600F026F8022084F881
:101580003D00211D206800F0CBFE012084F84600BC
:1015900000BF84F83E0001213F2001554020015545
:1015A0004120015500BF00BF012084F842004320C4
:1015B0000155442001554520015500BF012084F804
:1015C0003D000020D0E7000038B5044627492068D8
:1015D000884233D100BF002000902548006840F0C9
:1015E0000100234908600846006800F001000090EF
:1015F00000BF00BF1F48204908604FF040604860AE
:1016000040211D4881600021C1604FF4806101616B
:1016100089004161890081610021C1614FF48031FD
:10162000016200214162FFF7D1F808B1FEF796FF91
:1016300000BF114961620846846315E00F492068C4
:10164000884211D100BF002000900948001F0068A7
:1016500040F480700649091F08600846006800F4DD
:101660008070009000BF00BF38BD00000000014046
:101670004438024028640240C80000200020004096
:101680002DE9F04104460D46002700BF94F83C00C8
:10169000012802D10220BDE8F081012084F83C003D
:1016A00000BF022084F83D002068866826F0770697
:1016B00026F47F46206886602868502833D00CDCEA
:1016C000202850D004DC00284BD0102851D149E00C
:1016D000302849D040284CD139E060282DD07028DE
:1016E00007D0B0F5805F03D0B0F5005F41D10DE0C9
:1016F00041E0D5E902136A68206800F019FF20680C
:10170000866846F077062068866034E0D5E90213E3
:101710006A68206800F00CFF2068806840F4804010
:101720002168886027E0EA686968206800F0F0FFB7
:101730005021206800F007FF1DE0EA686968206812
:1017400000F0F9FF6021206800F0FDFE13E0EA6878
:101750006968206800F0DCFF4021206800F0F3FE9B
:1017600009E000BF00BF00BF2968206800F0EBFE61
:1017700001E0012700BF00BF012084F83D0000BF49
:10178000002084F83C0000BF384684E77047000022
:1017900010B586B00446142101A8FEF7DCFD1149FE
:1017A000206888421CD100BF002000900E480068CD
:1017B00040F001000C4908600846006800F0010094
:1017C000009000BF00BF8815019002200290002009
:1017D000039004900120059001A90448FFF7CAF87E
:1017E00006B010BD00000140303802400000024049
:1017F0002DE9F04104460D461646002700BF94F837
:101800003C00012802D10220BDE8F081012084F8CB
:101810003C0000BF36B1042E1BD0082E31D00C2E58
:101820005ED145E02946206800F096FE2068806978
:1018300040F00800216888612068806920F0040079
:101840002168886120688069296908432168886166
:1018500048E02946206800F0B7FE2068806940F41F
:101860000060216888612068806920F480602168B8
:10187000886120688069296940EA012021688861BF
:1018800030E02946206800F0DDFE2068C06940F0A5
:1018900008002168C8612068C06920F00400216840
:1018A000C8612068C069296908432168C86119E0D6
:1018B0002946206800F002FF2068C06940F40060FB
:1018C0002168C8612068C06920F480602168C8610F
:1018D0002068C069296940EA01202168C86101E0E7
:1018E000012700BF00BF00BF002084F83C0000BFFC
:1018F000384689E710B504460CB9012010BD94F8AC
:101900003D0028B9002084F83C00204600F025F86E
:10191000022084F83D00211D206800F001FD012017
:1019200084F8460000BF84F83E0001213F200155A5
:10193000402001554120015500BF00BF012084F81F
:10194000420043200155442001554520015500BF68
:10195000012084F83D000020D0E7704710B5044610
:101960000021024800F02CF910BD000038000020D2
:10197000704700002DE9F04704460D4616461F4605
:101980004FF0000815B994F83E000BE0042D02D189
:101990003F20005D06E0082D02D14020005D01E0FF
:1019A0004120005D022801D1BDE8F08715B994F807
:1019B0003E000BE0042D02D13F20005D06E0082D23
:1019C00002D14020005D01E04120005D012818D1D6
:1019D00006B10FB90120E7E71DB9022084F83E00E7
:1019E00011E0042D03D102213F2001550BE0082D09
:1019F00003D102214020015505E00221412001557B
:101A000001E00120D0E735B1042D1FD0082D38D0DA
:101A10000C2D6CD150E06049606AC1635F49606A17
:101A200001645F49606AC164216801F134023B4688
:101A30003146606AFEF740FF08B10120B4E7206834
:101A4000C06840F400702168C86053E05249A06A41
:101A5000C1635249A06A01645149A06AC164216806
:101A600001F138023B463146A06AFEF725FF08B176
:101A7000012099E72068C06840F480602168C86050
:101A800038E04549E06AC1634449E06A0164444979
:101A9000E06AC164216801F13C023B463146E06ADC
:101AA000FEF70AFF08B101207EE72068C06840F415
:101AB00000602168C8601DE03749206BC163374969
:101AC000206B01643649206BC164216801F140023A
:101AD0003B463146206BFEF7EFFE08B1012063E77D
:101AE0002068C06840F480502168C86002E04FF070
:101AF000010800BF00BFB8F1000F4AD101222946FA
:101B0000206800F081FC27492068884203D02649DC
:101B10002068884201D1012000E0002028B120681F
:101B2000406C40F40040216848641E4920688842A7
:101B30001BD02068B0F1804F17D01C492068884224
:101B400013D01B49206888420FD01A492068884268
:101B50000BD015492068884207D017492068884271
:101B600003D01649206888420DD12068806800F0B3
:101B70000709B9F1060F0CD02068006840F0010099
:101B80002168086005E02068006840F001002168D5
:101B90000860404608E700002B2400089324000852
:101BA000D32400080000014000040140000400406C
:101BB00000080040000C00400040014000180040B8
:101BC00070B504460D46002635B1042D0ED0082D03
:101BD00016D00C2D28D11DE02068C06820F40070BC
:101BE0002168C860606AFEF7BCFC1FE02068C0681E
:101BF00020F480602168C860A06AFEF7B2FC15E09E
:101C00002068C06820F400602168C860E06AFEF7C0
:101C1000A8FC0BE02068C06820F480502168C860F0
:101C2000206BFEF79EFC01E0012600BF00BF002EE6
:101C30004AD100222946206800F0E6FB23492068AB
:101C4000884203D022492068884201D1012000E067
:101C5000002090B100BF2068006A41F211110840D5
:101C600050B92068006A8910084028B92068406C83
:101C700020F400402168486400BF00BF2068006A6B
:101C800041F21111084050B92068006A89100840DB
:101C900028B92068006820F001002168086000BFB2
:101CA0001DB9012084F83E000EE0042D03D101216E
:101CB0003F20015508E0082D03D1012140200155A6
:101CC00002E0012141200155304670BD0000014075
:101CD0000004014000BFFEE708B500BF00200090EF
:101CE0000A48006840F48000084908600846006817
:101CF00000F48000009000BF00BF00221146392090
:101D0000FEF7C6FF3920FEF7AFFF08BD30380240AE
:101D100000B587B0142102A8FEF71DFB00BF00200C
:101D200001903148006840F080002F490860084663
:101D3000006800F08000019000BF00BF00BF0020DD
:101D400001900846006840F00400086008460068FA
:101D500000F00400019000BF00BF00BF0020019010
:101D60000846006840F0010008600846006800F07E
:101D70000100019000BF00BF00BF00200190084695
:101D8000006840F0020008600846006800F00200A9
:101D9000019000BF00BF002210211448FEF7E4FEAE
:101DA000012220211148FEF7DFFE00224FF480714E
:101DB0000F48FEF7D9FE302002900120039000204A
:101DC0000490059002A90948FEF7D4FD4FF48070F5
:101DD00002900120039000200490059002A904487D
:101DE000FEF7C8FD07B000BD3038024000080240D1
:101DF0000004024010B50A480A490860A82048605B
:101E00000021084881604FF6FF71C1600021016127
:101E10008161FFF7A5FB08B1FEF7A0FB10BD000034
:101E2000002000408000002000B595B000201190F7
:101E30001290139014900F9010901C2108A8FEF798
:101E40008AFA20216846FEF786FA2A482A4908605D
:101E500000204860002128488160D221C160002113
:101E6000016141618161FFF77BFB08B1FEF776FB01
:101E70004FF48050119011A91F48FFF701FC08B1E1
:101E8000FEF76CFB1C48FFF735FD08B1FEF766FB5B
:101E900000200F9010900FA91748FFF707FB08B11B
:101EA000FEF75CFB60200890002009900A900B90E0
:101EB0000C900D900E90002208A90F48FFF798FC97
:101EC00008B1FEF74BFB00200090019002900390B8
:101ED00004904FF400500590002007906946064892
:101EE000FFF7AAFA08B1FEF739FB0348FFF750FCE9
:101EF00015B000BD000001403800002000BFFEE723
:101F00007FB505460C46164600EE104AF8EEC00AAC
:101F10009FED171A81EE200A1648D0ED000A30EE28
:101F2000200A80ED000A1448006890FBF4F104FBDD
:101F3000110040B90F4890ED000AF7EE000A30EEAC
:101F4000200A80ED000A0B4890ED000A684600F078
:101F5000C3FCDDE90001CDE9020107480068401C2F
:101F600005490860DDE90201C5E900017FBD000007
:101F70000000B443280000202400002000BFFEE73A
:101F800070472DE9FF470446884616461F46DDF890
:101F90003090D4E90001CDE90201E078C0F3C0003F
:101FA00028B9E07840F00800E070FF206060B74298
:101FB00050DD6068FF2803D106EB0800801E6060DA
:101FC00007EB08016068884207DAE078C0F3001088
:101FD00018B96068401C606002E006EB08006060B1
:101FE000002534E06068401B13D46068401BB84291
:101FF0000FDC2A4641466846C847DDE90001CDE9C5
:1020000002012179491BC8B2DDE9021200F0A0F8F3
:102010001BE06068C01B401B3044401E002814D4E5
:102020006068B84211DD2A4641466846C847DDE986
:102030000001CDE902012179C91B491B3144491E28
:10204000C8B2DDE9021200F083F8681CC5B245454C
:10205000C8DB57E06068FF2803D1A6EB0800401CEE
:102060006060A7EB08016068884203DD6068401E7D
:10207000606002E0A6EB08006060002540E0606858
:102080002844002817DB60682844B84213DB6068E6
:102090002844B0420FDA2A4641466846C847DDE97F
:1020A0000001CDE9020121792944C8B2DDE902121B
:1020B00000F04EF822E06068381A401B301A401CCD
:1020C00000281BDB6068B84218DA6068381A401BC9
:1020D000301A401CB04211DC2A4641466846C847C7
:1020E000DDE90001CDE902012179791A491B711A54
:1020F000491CC8B2DDE9021200F02AF8681CC5B21A
:102100004545BCDBBDE8FF8710B500F091F800F055
:1021100001F810BD10B540F69853034A002103485A
:10212000FFF728FC10BD00007801002038000020D7
:102130007FB505460E4600242C4606E02046DDE924
:10214000021200F005F8601CC4B2B442F6DD7FBD97
:1021500017B50346902B00DD1EBD002013E09DF84F
:102160000510C0F107040122A240114009B18F21DE
:1021700000E0432103EB43021D4C04EB421242F802
:102180002010411CC8B20828E9DB082013E09DF8A4
:102190000410C0F10F040122A240114009B18F21A7
:1021A00000E0432103EB4302114C04EB421242F8DE
:1021B0002010411CC8B21028E9DB102013E09DF864
:1021C0000610C0F117040122A240114009B18F216D
:1021D00000E0432103EB4302054C04EB421242F8BA
:1021E0002010411CC8B21828E9DB00BFB4E700008A
:1021F0007801002008B50B4890210CC80020FFF79B
:1022000097FF01220421084800F0EBFC07489023C7
:102210000022194600900448C01EFFF7B2FEFFF7E7
:1022200073FF08BD103700083B010020011F0008A4
:10223000002005E00022044941F82020411CC8B2DA
:102240001828F7DB7047000078370020704710B57A
:10225000FEF796FC10BD000000B593B0302107A832
:10226000FEF779F8142102A8FEF775F800BF0020E8
:1022700001902448006840F08050224908600846D8
:10228000006800F08050019000BF00BF00BF002038
:1022900001901D48006840F480401B4908600846D2
:1022A000006800F48040019000BF00BF012007904B
:1022B0000004089002200D9041050E9104210F9119
:1022C000A8211091022111910421129107A8FEF773
:1022D0004BFE08B1FEF742F90F2002900220039056
:1022E000002004904FF4A05005904FF480500690C9
:1022F000052102A8FEF71EFD08B1FEF72FF913B065
:1023000000BD0000403802400070004003480068F3
:1023100040F47000014908607047000088ED00E05B
:1023200010B502682D4B98420ED0B0F1804F0BD003
:102330002B4B984208D02B4B984205D02A4B984201
:1023400002D02A4B984203D122F070024B681A4304
:10235000224B984220D0B0F1804F1DD0204B9842A4
:102360001AD0204B984217D01F4B984214D01F4BC5
:10237000984211D01E4B98420ED01E4B98420BD063
:102380001D4B984208D01D4B984205D01C4B9842DB
:1023900002D01C4B984203D122F44072CB681A43FE
:1023A00022F080034C6943EA040202608B68C36236
:1023B0000B688362094B984202D00C4B984201D1C2
:1023C0000B69036301234361036903F001031BB13C
:1023D000036923F00103036110BD00000000014008
:1023E0000004004000080040000C004000040140D0
:1023F00000400140004401400048014000180040F6
:10240000001C00400020004030B501F01F050124F1
:1024100004FA05F3046A9C430462046A01F01F0590
:1024200002FA05F52C43046230BD70B50546AC6B6D
:10243000606AA84207D101202077E86918BB012013
:1024400084F83E001FE0A06AA84207D1022020774E
:10245000E869C0B901213F20015514E0E06AA842B3
:1024600007D104202077E86968B90121402001558F
:1024700009E0206BA84206D108202077E86910B94E
:102480000121412001552046FFF768FA00202077FE
:1024900070BD70B50546AC6B606AA84202D10120E0
:1024A000207710E0A06AA84202D1022020770AE03B
:1024B000E06AA84202D10420207704E0206BA84201
:1024C00001D1082020772046FFF752FA002020771C
:1024D00070BD70B50546AC6B606AA84204D101209E
:1024E000207784F83E001DE0A06AA84205D10220B2
:1024F000207701213F20015514E0E06AA84205D170
:10250000042020770121402001550BE0206BA842D8
:1025100005D10820207701214120015502E001204A
:1025200084F83D002046FFF731F90020207770BD88
:1025300030B50C46816821F47F4142EA03252543EA
:102540002943816030BD0A46816821F0700142F064
:10255000070319438160704730B5026A056A25F0A8
:10256000010505624368846924F0700424F00304C3
:102570000D682C4322F002028D682A43104DA842B8
:1025800000D103E00F4DA84206D100BF22F008029F
:10259000CD682A4322F00402094DA84202D0094D19
:1025A000A84207D123F4807323F400734D692B43B1
:1025B0008D692B43436084614D684563026230BD81
:1025C000000001400004014030B5026A056A25F0B0
:1025D000100505624368846924F4E04424F44074DF
:1025E0000D6844EA052422F020028D6842EA0512B3
:1025F000124DA84200D103E0114DA84207D100BFFF
:1026000022F08002CD6842EA051222F040020B4D12
:10261000A84202D00A4DA84209D123F4806323F4D2
:1026200000634D6943EA85038D6943EA850343608E
:1026300084614D688563026230BD00000000014086
:102640000004014030B5026A056A25F48075056210
:102650004368C46924F0700424F003040D682C431B
:1026600022F400728D6842EA0522124DA84200D180
:1026700003E0114DA84207D100BF22F40062CD68EB
:1026800042EA052222F480620A4DA84202D00A4D95
:10269000A84209D123F4805323F400534D6943EA3F
:1026A00005138D6943EA05134360C4614D68C56332
:1026B000026230BD000001400004014030B5036AF1
:1026C000056A25F4805505624468C26922F4E04237
:1026D00022F440720D6842EA052223F400538D680B
:1026E00043EA0533084DA84202D0084DA84204D160
:1026F00024F480444D6944EA85144460C2614D6805
:102700000564036230BD0000000001400004014088
:1027100030B50B461446026A056A25F001050562CC
:10272000816921F0F00141EA041122F00A021A4302
:102730008161026230BD30B50B461446026A056AFB
:1027400025F010050562816921F4704141EA0431E8
:1027500022F0A00242EA03128161026230BD00BF92
:10276000FEE7000002480068C0F302207047000046
:102770000CED00E010B5002804DB0A07130E054A33
:10278000135406E00A07140E034A00F00F031B1F40
:10279000D45410BD00E400E018ED00E02DED020B74
:1027A000019820F0004001909DED000B02B07047B1
:1027B00010B52DED040B86B09DED060B10EE100A42
:1027C00010EE901A8DED000B002818BF0120084371
:1027D00020F00040C0F17F6000F1E040C00F21D147
:1027E0009DED080B10EE101A10EE900A8DED000B07
:1027F000002918BF0121084320F00040C0F17F608C
:1028000000F1E040C00F0DD129490798B1EB400F0E
:1028100004BF0698002842D00998400004BF0898D9
:1028200000283CD09DED080B53EC102B9DED060BC2
:1028300051EC100B00F03CFDCDE902019DED020BC7
:1028400040F2FF7110EE900A8DED000B31EA10504E
:1028500021D00798039900F0004001F00041884220
:1028600019D09DED080B8DED040B9DED020B8DED48
:10287000000B10EE900A059961F31E0005909DED86
:10288000041B9DED020B51EC110B53EC102B00F0CF
:10289000BDFDCDE902019DED020B0AB010BD012086
:1028A000FDF788FD0AB0BDE8104000F005B8000053
:1028B0000000E0FF000000009FED050B10B553EC99
:1028C000102B51EC100B00F073FA41EC100B10BD03
:1028D000000000000000000030B52DED108B8DB021
:1028E0000446F0EE40DA1DEE900A00F085FE41EC61
:1028F0001C0B9FEDA31BB0EE4C0AF0EE6C0AFFF729
:1029000057FFB0EE40BAF0EE60BA51EC1B0B00F08E
:10291000A7FB00EE100AB8EEC00AB0EE408AB7EE90
:10292000000A10EE105AB6EE000AB0EE40EA284651
:1029300000F062FE41EC1B0BB7EE000AF0EE000A5D
:1029400010EE8E0A10EE101A084600F055FE41EC0B
:102950001C0BB0EE4C0AF0EE6C0AFFF71FFF8DED7A
:10296000060B9FED890B53EC102B9DED060B51ECE4
:10297000100B00F04BFD53EC1B2BCDE908019DED36
:10298000080B51EC100B00F09BFB41EC1F0B00F00F
:1029900035F908EE900A18EE100A00F02DFE41EC11
:1029A0001C0B9FED7B0B53EC102B00F001FA41EC5C
:1029B0001B0B9FED791BB0EE4B0AF0EE6B0AFFF795
:1029C000F7FEB0EE40FAF0EE60FA9FED6F0B53ECBD
:1029D000102B51EC1F0B00F025FDCDE900019DED02
:1029E000000BFFF7DBFE8DED020B9FED670B53EC49
:1029F000102B9DED020B51EC100B00F007FDCDE903
:102A0000060118EE900A00F0F7FDCDE904019DEDF6
:102A1000060B53EC102B9DED040B51EC100B00F04A
:102A20004FFBCDE908019DED080B51EC100B00F0B8
:102A3000E5F80AEE900AF0EE000A88EEA00A3EEEF3
:102A4000400AB0EE40DAB5EEC08AF1EE10FA0DDBC6
:102A50009FED530AB4EEC08AF1EE10FA06D2B0EE42
:102A6000689AF0EE6A9A9FED4FAA59E09FED4C0AE2
:102A7000B4EEC08AF1EE10FA0DDB9FED4B0AB4EE16
:102A8000C08AF1EE10FA06D2B0EE6A9AF0EE689AB9
:102A90009FED44AA44E09FED440AB4EEC08AF1EEF3
:102AA00010FA0DDB9FED410AB4EEC08AF1EE10FA88
:102AB00006D29FED3C9AF0EE689AB0EE6AAA2FE03B
:102AC0009FED3A0AB4EEC08AF1EE10FA0DDB9FEDED
:102AD000380AB4EEC08AF1EE10FA06D29FED319AB0
:102AE000F0EE6A9AB0EE68AA1AE09FED310AB4EEF1
:102AF000C08AF1EE10FA0DDB9FED2E0AB4EEC08A0B
:102B0000F1EE10FA06D2B0EE6A9ADFED269AB0EE38
:102B100068AA05E0B0EE689ADFED229AB0EE6AAAE4
:102B200039EE0D0ADFED240A20EE200ABDEEC00AC0
:102B300010EE100AC0B28DF8280039EE8D0ADFEDD4
:102B40001E0A20EE200ABDEEC00A10EE100AC0B226
:102B50008DF829003AEE0D0ADFED170A20EE200A63
:102B6000BDEEC00A10EE100AC0B28DF82A00DDE9F1
:102B70000A01C4E900010DB0BDEC108B30BD0000AE
:102B80000000000000807640000000000000F03FE0
:102B90000000000000004E40000000000000004067
:102BA00000007042000000000000F04200003443CA
:102BB000000070430000964300007F43FDF7ECFFE8
:102BC000FFF74AFBFFF7A4F8FFF786F8FFF72CF9A9
:102BD000FFF710F904E0FFF70DFB0A20FDF7B6FE42
:102BE000F9E710B501248C40E3B21AB104781C4314
:102BF000047002E004789C43047010BD21F0004290
:102C0000A2F16052B2F5801F01F0004328BFD2F15B
:102C10007F6C0BD95FEA001C43EAC20242EB5070A2
:102C200018BF704728BF20F001007047B2F5801F21
:102C3000BCBF184670474FEA410C1CF5001F02D27A
:102C4000084600F04FBD70B500F0E4FA00000089BE
:102C5000FFF7F6BF4FF00040A0F58000704700007E
:102C600010B591EA030F48BF83F0004300F1E283FF
:102C7000841A71EB030C05D2121943EB0C03001BF1
:102C800061EB0C01DFF824E14FEA1154A4EB135C73
:102C90001EEA430F18BF9EEA445F73D023EA0E0377
:102CA000DCF1200E21EA045143F4801332D322FADE
:102CB0000CFE10EB0E0023FA0CFE41EB0E01CCF1E2
:102CC000200E03FA0EFE10EB0E0051F10001B1F5DB
:102CD000801FCCF1200E32D201EB045112FA0EF219
:102CE000BDE8104058BF7047401C38BF5FEA420241
:102CF00018BF7047002814BF20F0010041F1000107
:102D00004FEA410313F5001F38BF7047A1F1C041DE
:102D100000F076BB012A43EB0302ACF1200CDCF19E
:102D20001F0E32BF4FF0000E23FA0CF310EB03001E
:102D300041EB0451B4EB115FD0D0A1EB045101F58C
:102D4000801149085FEA300001EB04510ED350F1C5
:102D5000000038BF12FA0EFE08D1BDE81040C9E7E6
:102D6000401C38BF5FEA4202CAD1C3E7BDE8104049
:102D70004FEA410313F5001F38BF7047A1F1C0416E
:102D800000F03EBB9EEA445F08D011EA5E0FBDE84A
:102D9000104004BF01F0004100207047BDE8104022
:102DA00070B500F037FA00BF64FBBE3E0000E0FFE4
:102DB0002DE9C04130B4DFF8A0C23CEA111418BFBD
:102DC0003CEA131400F0EC8081EA03051CEA1114BC
:102DD00044EAD57418BF1CEA131500F0C780A4EBB1
:102DE00005044FF0004545EAC12145EAC32341EA05
:102DF000505143EA525304F17F74994204F5003470
:102E00004FEAC0204FEAC22208BF904200F09C80E7
:102E10004FEA13650FF24016765D4FEA134506FB45
:102E200005F7C7F1807706FB07F74FEAD737A7FB0F
:102E300003687642C8F58038A7FB06CE38BFA8F1F4
:102E4000010807FB08E64FF0000EA6FB028CE6FB2C
:102E500003CEDCF1000CCEF1004E38BFAEF1010E16
:102E6000A6FB0C584FF000074FF00005E6FB0E875D
:102E7000A1FB08C6A0FB07CE16EB0E0645F1000528
:102E8000E1FB076515F1E04E7EBFA4F580345FEAF3
:102E900046066D4116F1800745F100054FEA1727F8
:102EA0004FEA066647EA0567A6F1DE46B6F1805F9F
:102EB0004FEA15251FD9384624F0010C05EBC471E3
:102EC000BCF1FE6F01EB0C1102D8F0BCBDE8008133
:102ED00024425CBF01F5801E9EEAC47F02D4F0BC90
:102EE000BDE80081244238D4F0BCA1F1C041BDE866
:102EF000004100F085BA4FEAD22242EA43524FEA3B
:102F0000D323A7FB02864FEAD02040EA415007FBBB
:102F100003661EEA0E0F4FEAD12105FB026658BF79
:102F2000A6EB0056B6EB00564FEA520E4EEAC37EB1
:102F300018EB0E0E56EB530EBDD518EB02085E4192
:102F40007F1C55F10005B6E74FF480154FF00007E0
:102F50004FF000064FF00008ADE7F0BC4FF0000066
:102F600001F1C04101F00041BDE8008111EA0C1FF0
:102F70000CEA131500D00CE013EA0C1F00F02580BA
:102F80004FF00000F0BC81EA030101F00041BDE810
:102F90000081F0BCBDE8004181EA030100F030BAD5
:102FA000F0BCBDE8004170B500F034F9097EFC3E8C
:102FB00000F007B881EA03014FF0000001F0004182
:102FC000704781EA030100F01BBAF0BCBDE8004184
:102FD0004FF0000021497047FFFDFBF9F7F5F4F2CF
:102FE000F0EEEDEBE9E8E6E4E3E1E0DEDDDBDAD8A4
:102FF000D7D5D4D3D1D0CFCDCCCBCAC8C7C6C5C402
:10300000C2C1C0BFBEBDBCBBBAB9B8B7B6B5B4B318
:10301000B2B1B0AFAEADACABAAA9A8A8A7A6A5A403
:10302000A3A3A2A1A09F9F9E9D9C9C9B9A999998C7
:103030009797969595949393929191908F8F8E8E6A
:103040008D8C8C8B8B8A89898888878786858584F7
:1030500084838382828181800000FF070000F87FE3
:103060004FEA41034FEA5353A3F58063D3F11E03A4
:10307000C8BFD3F1210C0CDD4FF0004242EAC1225F
:1030800042EA505232FA03FC8CEAE17CACEBE1708C
:103090007047102BC4BF0020704703F5787CBCF14B
:1030A000FF3F04D06FF0004282EA2100704770B504
:1030B00000F0B0F84992248000207047F2E7000049
:1030C000DFF848C170B51CEA111E1EBF1CEA1315BB
:1030D0009EEA0C0F95EA0C0F00F06F8081EA030462
:1030E00023EA4C134EEAD47E21EA4C1141F48011BC
:1030F00043F48013AE44A1FB024CA0FB0365AEF188
:103100007F7E361955EB0C05A1FB034C4CF10003F7
:10311000A0FB021C16EB0C06654153F100030942AB
:1031200018BF46F0010613F4007F0BD14FEA0331BC
:103130004FEA0530340341EA155140EA16506FF06A
:1031400003020AE04FEAC3214FEAC520F40241EA34
:10315000555140EA56506FF0020202EB2E4201EB4D
:10316000025585EACE710AD05FEA440C18BF24F0FC
:10317000004450F1000041F1000120EAD47040F217
:10318000FE7C624500D270BDA84214BF4FF080445F
:103190004FF04044002E08BF0024BEF1806FA8BF4E
:1031A000A1F1C041BDE8704080F22A814FF00000DB
:1031B00001F1C04101F0004170479EEA0C0F0CEA9A
:1031C000131518BF95EA0C0F06D04FF0000081EAE6
:1031D000030E0EF0004170BD00F01CF88900013EA6
:1031E00000F007B800F009B84FEA430C5FEA5C5CF6
:1031F00008D081EA030100F003B94FEA410C5FEA0D
:103200005C5CF6D14FF00000014970470000FF07F9
:103210000000F87F0EF1020E2EF0030E5EF8046B34
:10322000364205D4012A43EB030515F5001F12D8D9
:10323000012841EB010C1CF5001F0CD80ED14FEA00
:10324000D17C15F5001F0CEB4C0C0CF1020C08BFE7
:103250004CEBD37C04E04FF0080C01E04FEAD37C48
:103260000CEB4C0526FA05F606F00706B6F1040C41
:1032700006D20EEB860CBDE870404CF0010C6047A6
:10328000DFE80CF0090B02024FF000414FF00000A4
:10329000A1F5002170BD19461046012851EB01042B
:1032A00018BFD4F5001484BF002001F0004170BDA8
:1032B000DFF844C170B53CEA111418BF3CEA13159D
:1032C00000F08F8011F1004F1CEA13150CEA111465
:1032D00068BF45F0050518BF11EA0C1F00F07980A2
:1032E0002E4621EA4C1123EA4C1341F4801143F499
:1032F0008013A5F58035AC423DDD801A9941A4F5D7
:10330000803609D54042C1F1000134BFB1F101015D
:10331000B1F1000185F0010511F4F01F08D011F49E
:10332000801FE8D1400041EB0101A4F58034F6E7AD
:1033300021F00041B1FA81F6202E04BFB0FA80FEE0
:103340000EF12006A6F10B06B6F1200EA4EB064402
:103350000CD2C6F1200E01FA06F120FA0EF641EA6F
:103360000601CEF1200600FA06F003E000FA0EF1A5
:103370004FF00000BFE750EA410E23D04FEA244E41
:10338000BEEB254F0FDB994208BF904204D00AD311
:10339000520043EB0303B0E74FEA1646B6EB144F77
:1033A00008BF85F00105B4F5803401EB041181EA12
:1033B000C57100DB70BD01F1C0414FF0000001F0AC
:1033C000004170BD4FEA45714FF0000001F000412F
:1033D00070BD1CEA131F09D04FF0000001F000413E
:1033E00070BDFFF717FF00BFEDFFFF3EBDE8704067
:1033F0004FF00000014970470000FF070000F87F10
:103400000808A0F500114FEA3101704791EA030F57
:1034100010B581F000413FF52BAC83F0004300F084
:1034200009B8000010B591EA030F48BF83F00043CC
:103430003FF51EAC841A71EB030C07D212198CF005
:10344000004C43EB0C03001B61EB0C01DFF8A4E123
:103450004FEA1154A4EB135C1EEA430F18BF9EEA17
:10346000445F00F0B08023EA6E03524221EA045127
:10347000C3EB6E0338BF5B1EDCF1200E25D322FAAE
:103480000CFE10EB0E0043FA0CFE41EB0E01CCF1EA
:10349000200E03FA0EFE10EB0E0051F10001CCF1EC
:1034A000200E29D412FA0EF201EB0451BDE81040AF
:1034B00058BF7047401C1CBFB2F1004F7047002836
:1034C0000CBF491C20F00100704712EB020E43EBC9
:1034D000030218BF4FF0010E4EEA4202ACF1200C7D
:1034E000DCF11E0E54D943FA0CFE10EB0E0051F124
:1034F000FF31CCF11E0ED5D50EF1010E12FA0EFEE3
:10350000404141EB010101EB445C5FEA5C5C10D996
:1035100010EBDE7001EB045138BFBEF1004FBDE887
:10352000104018BF704700280CBF491C20F0010054
:10353000704730D24FEAD42C11F5001124F4006406
:103540001BD0B1FA81F20B3AA41AA41ED2F12003C7
:10355000914030FA03F31943904001EBCC71002CF9
:1035600001EB0451BDE81040A8BF704701F1C04114
:103570004FF0000001F000417047B0FA80F310FAFC
:1035800003F100D110BDE41A173C4805C90AE4E76D
:1035900001EB045110BD491001EB0451BDE810408E
:1035A0004FEA300002E04FF0000170474A0008BFC8
:1035B0000042F8D0B2F5001F28BF704701F000416B
:1035C0004FF0000070479EEA445F07D011EA5E0F9B
:1035D000BDE8104004BF002100207047BDE8104046
:1035E00070B5FFF717FE00BF40DFF63E83F00041E5
:1035F000104670470000E0FF43004FEAD30C4FEA4B
:103600003C0C43401FBF40070CF1605113F0FE4FCC
:1036100070471CF0006F03D100200CF00041704790
:103620000CF0004343EA507010B540EACC0000F0C3
:103630000EF800BF000000924FEA0001FFF7E0BE65
:103640004FF000414FF00000A1F5002170470EF14E
:10365000020E2EF0030E5EF8044B244204D44FEA0F
:103660004102B2F17F4F11D84FEA4003B3F17F4FCF
:103670000CD80ED14FEAD07CB2F17F4F0CEB4C0C42
:103680000CF1020C08BF4CEBD17C04E04FF0080CAD
:1036900001E04FEAD17C0CEB4C0324FA03F404F074
:1036A0000704B4F1040C06D20EEB840CBDE8104004
:1036B0004CF0010C6047DFE80CF0070802024FF005
:1036C0000040A0F5800010BD0846420018BFD2F1AE
:1036D000807288BF00F0004010BD4FF04070E1EEF6
:1036E000100A7047FF2141EAD050C005704700061C
:1036F0001016000610160000000000000000010275
:10370000030406070809000000000102030400008A
:103710000000000000000000383700080000002012
:1037200038000000C401000870370008380000208D
:10373000C03E0000E0010008000000001000000092
:10374000010000000024F400FF0000000000000061
:10375000000A00000000000000000000000000005F
:103760000000000000000000000000000000000059
:040000050800018965
:00000001FF
